:020000040800F2
:1000000058640020E90200082B320008332A000857
:1000100029320008F9060008D93D00080000000058
:10002000000000000000000000000000290200089D
:1000300039090008000000008502000805340008A6
:100040000303000803030008030300080303000878
:100050000303000803030008030300080303000868
:100060000303000803030008030300080303000858
:10007000650800080303000803030008710800086E
:100080000303000803030008030300080303000838
:100090000303000803030008030300080303000828
:1000A0000303000803030008030300080303000818
:1000B0000303000803030008030300080303000808
:1000C00003030008030300080303000803030008F8
:1000D00003030008C13D000803030008CD3D0008EC
:1000E00003030008030300080303000803030008D8
:1000F00003030008ED3400080303000803030008AD
:100100000303000803030008D534000803030008B4
:100110000303000803030008E13400080303000898
:100120007D0800080303000889080008030300088D
:100130000303000803030008030300080303000887
:100140000303000803030008030300080303000877
:100150000303000803030008030300080303000867
:100160000303000803030008030300080303000857
:100170000303000803030008030300080000000055
:10018000030300080303000800F002F800F03CF845
:100190000AA090E8000C82448344AAF10107DA45E2
:1001A00001D100F031F8AFF2090EBAE80F0013F0F8
:1001B000010F18BFFB1A43F0010318479C490000C8
:1001C000BC490000103A24BF78C878C1FAD8520759
:1001D00024BF30C830C144BF04680C6070470000C1
:1001E0000023002400250026103A28BF78C1FBD840
:1001F000520728BF30C148BF0B6070471FB504F0DD
:100200004DFC1FBD10B510BD00F066F91146FFF79B
:10021000F5FF03F0FFFD00F084F903B4FFF7F2FFF0
:1002200003BC00F087F900002C4B19680868B0E89F
:10023000F04F80F30988BFF36F8F4FF0000080F319
:10024000118870470000000008480068006880F3CB
:1002500008884FF0000080F3148862B661B6BFF3DF
:100260004F8FBFF36F8F00DF00BF00BF08ED00E0CE
:10027000DFF80C00016841F470010160704700BFB5
:1002800088ED00E0EFF30980BFF36F8F134B1A681E
:100290001EF0100F08BF20ED108A20E9F04F10600B
:1002A00009B44FF0500080F31188BFF34F8FBFF3B4
:1002B0006F8F04F02BFA4FF0000080F3118809BC17
:1002C00019680868B0E8F04F1EF0100F08BFB0ECD6
:1002D000108A80F30988BFF36F8F704730000020C9
:1002E000EFF3058070470000094880470948004740
:1002F000FEE7FEE7FEE7FEE7FEE7FEE7FEE7FEE7D6
:10030000FEE7FEE704480549054A064B7047000032
:10031000C534000889010008585E00205864002098
:10032000586000205860002053EA020C00F06980F9
:100330002DE9F04B4FF00006002B1FBFB3FA83F5F9
:1003400003FA05F424FA05F65E4012BF1643B2FA2A
:1003500082F502FA05F4C5F120051EBF22FA05FC5C
:1003600044EA0C04203556EA044C4FEA144418BF02
:10037000641C4FF000084FF00009904271EB030C31
:1003800039D3002919BFB1FA81F701FA07F6B0FA9B
:1003900080F700FA07F6C7F120071EBF20FA07FC16
:1003A00046EA0C062037B6FBF4FCA7EB0507103F26
:1003B00007F01F0BCBF120060CFA0BFB2CFA06F60C
:1003C00044BFB3460026202FA4BF5E464FF0000B6B
:1003D0005BEA060C08BF4FF0010B19EB0B09ABFBF6
:1003E000027C48EB0608C01B06FB02CC0BFB03CCCF
:1003F00071EB0C01C1E70B46024641464846BDE899
:10040000F08B13B54FF000004FF00001AFF3008008
:10041000BDE81C40704710B5203AC0F00B80B1E831
:100420001850203AA0E81850B1E81850A0E8185029
:10043000BFF4F5AF5FEA027C24BFB1E81850A0E832
:10044000185044BF18C918C0BDE810405FEA827C4C
:1004500024BF51F8043B40F8043B08BF7047D20763
:1004600028BF31F8023B48BF11F8012B28BF20F804
:10047000023B48BF00F8012B70474FF0000200B567
:10048000134694469646203922BFA0E80C50A0E8B7
:100490000C50B1F12001BFF4F7AF090728BFA0E865
:1004A0000C5048BF0CC05DF804EB890028BF40F831
:1004B000042B08BF704748BF20F8022B11F0804F73
:1004C00018BF00F8012B7047704770477047000055
:1004D00000487047F85D00207546FFF7F9FFAE460B
:1004E00005006946534620F00700854618B020B540
:1004F000FFF708FFBDE820404FF000064FF000076F
:100500004FF000084FF0000B21F00701AC46ACE8BB
:10051000C009ACE8C009ACE8C009ACE8C0098D4628
:10052000704710B50446AFF300802046BDE8104088
:10053000FFF773BE01491820ABBEFEE7260002009C
:10054000704710B50146806B026C12F0500F05D059
:10055000026CD20626D500F09BFA10BD016C41F466
:100560000071016401688A6812F0405F17D1027E51
:10057000AAB9CA6A12F4700F02D08A6852050ED462
:100580004A6822F020024A60016C21F48071016403
:10059000016CC90403D4016C41F00101016400F055
:1005A00075FA10BD806BC26CBDE81040084610475C
:1005B00010B5806B40210164416C41F0040141643D
:1005C00000F066FA10BD10B5806B00F060FA10BD47
:1005D000464910B54A6822F440324A604A68436886
:1005E0001A434A6001684A6822F480724A600168CE
:1005F0004A68036942EA03224A6001684A6822F0B5
:1006000040724A6001684A6883681A434A60016818
:100610008A6822F400628A6001688A68C3681A43A3
:100620008A60816A6FF07062D14201688A6822F044
:1006300070628A6001688A680CD0836A1A438A6093
:1006400001688A6822F040528A6001688A68C36A39
:100650001A4301E022F040528A6001688A6822F061
:1006600002028A6001688A68037E42EA43028A6065
:1006700090F82010002901684A680FD042F4006207
:100680004A6001684A6822F460424A6001684A6828
:10069000174C436A04EB43331A4301E022F400622F
:1006A0004A600168CA6A22F47002CA620168CA6AB2
:1006B000838B104C04EB03531A43CA6201688A68A7
:1006C00022F400728A6001688A6890F8303042EA49
:1006D00043228A6001688A6822F480628A60016825
:1006E0008A68406942EA8020886010BD002301408A
:1006F00000E0FFFF0000F0FFFEE700002548264B6A
:10070000B6EE002A30F9942FD3ED040A514200EEE0
:10071000101AB0F90410B8EEC01A00EE101AB8EEB4
:10072000C00A60EE201A9FED1D0A01EE801ADFED6F
:100730001C1A00ED241A01EE102AB0F90230B8EEAE
:10074000C11A61EE022A01EE103AB8EEC11A41EE6A
:10075000212A01EE101AB8EEC11A21EE201A41EE3C
:10076000002A01EE102AB8EEC11A40ED182A21EE37
:10077000022A01EE103AB8EEC11A01EE612A01EE2A
:10078000101AB8EEC11A61EE200A00EE802A00EDC0
:100790000C2A7047585D0020A8000020CDCCCC3E2C
:1007A000D7B35D3F70B50C4E002400BF04EB44008E
:1007B00006EB001505F11000D5ED020A95ED010AD2
:1007C00003F0DFFBBDEEC00A641CE4B210EE100AB9
:1007D000032CA881EAD370BD585D002070B5084E87
:1007E000084D002404EB440095EC040A06EB0010CD
:1007F000103003F0C1FB641CE4B2032CF2D370BDD3
:10080000585D0020A800002010B5FFF777FFBDE875
:100810001040FFF7C7BF00002DE9F041104D002444
:1008200004EB440005EB0016B6F90C0003F0E5FA02
:1008300005EB440727F89A0FB6F90C0000EE100AF2
:10084000B8EEC00A03F008FE01463A88204602F0DE
:10085000E7F9641CE4B2032CE2D3BDE8F0810000A8
:10086000585D0020014800F091BA00002C070020DC
:10087000014800F08BBA0000DC050020014800F0C0
:1008800085BA000084030020014800F07FBA000010
:10089000CC06002001681823CAB2103AB2FBF3F26A
:1008A000054B6FF30901032A9B5CC36500D9091D41
:1008B0008165084670470000FC4A000810B50146F3
:1008C00000208B698A6A4FF0C07453B1B3F5005FA2
:1008D00015D072B1012A0CD0022A0AD0032A09D1FC
:1008E00004E01AB1012A06D0022A03D1C96AC9015B
:1008F00000D5012010BDC96AA142FAD010BD002A5E
:10090000F7D0012AF2D0022AF3D0032AF3D010BD87
:1009100030B50468256825F4802525600468636087
:100920008368402B036803D099600068C26030BDC3
:100930009A600068C16030BD704772B6FEE7000083
:1009400078B50024009490F83C20012A19D00122A7
:1009500080F83C200A6807230568092A13D9EE6845
:100960000A3A02EB420293409E43EE600B788A689B
:100970000A3B03EB43039A400368DD682A43DA60CD
:1009800010E0022078BD2E6902EB420293409E43A4
:100990002E610B788A6803EB43039A4003681D6954
:1009A0002A431A614A681F23072A13D205686E6B0F
:1009B000521E02EB820293409E436E630B790A88BB
:1009C0005B1E92B203EB83039A4003685D6B2A437C
:1009D0005A6327E005680D2A12D22E6BD21F02EB54
:1009E000820293409E432E630B790A88DB1F92B2EA
:1009F00003EB83039A4003681D6B2A431A6311E0DB
:100A0000EE6A0D3A02EB820293409E43EE620B794E
:100A10000A880D3B92B203EB83039A400368DD6AB8
:100A20002A43DA62164B0568144A9D4206D10D68C6
:100A3000122D03D1556845F48005556005689D4227
:100A400018D10B68102B01D0112B13D1536843F42C
:100A500000035360096810290CD10A490A4A096841
:100A6000B1FBF2F101EB8101490000E0491E009168
:100A70000029FBD180F83C40002078BD00230140D4
:100A8000002001402C00002040420F0070477047BA
:100A9000704770B504004FF0000503D0206C0026AD
:100AA00010B107E0012070BD204600F01DF866641B
:100AB00084F83C60206CC00610D4206C20F4885070
:100AC00040F0020020642046FFF782FD6664206C3F
:100AD00020F0020040F00100206400E0012584F8CD
:100AE0003C60284670BD000070B586B006461421F3
:100AF0006846FFF7C2FC1D493068884234D11C4863
:100B00000025016841F480710160006800F4807084
:100B1000059017481438016841F001010160006830
:100B2000694600F0010005900C2000900320CDE9FB
:100B30000105104800F09CFA104C0F48C4E900056C
:100B40000015A560C4E90350800060618000A061C9
:100B50008011C4E907052046656200F0E7F908B195
:100B6000FFF7EBFEB463A66306B070BD0020014042
:100B70004438024000000240106402408403002018
:100B8000F8B5044600200E46009094F83C10012968
:100B900007D0012184F83C1021688B68DB0702D064
:100BA00011E00220F8BD8B6843F001038B604049DF
:100BB000404B0968B1FBF3F101EB410100E0491E34
:100BC00000910029FBD121688B68DB0503D58B6878
:100BD00023F480738B6021688B68DB075DD0236C06
:100BE00040F20165AB4343F48073236449684905CF
:100BF00005D5216C21F4005141F480512164216C10
:100C0000C90404D5616C21F00601616400E06064F0
:100C100084F83C00A16B2948274DC863A16B284884
:100C20000864A16B2748C86421686FF0220008603F
:100C30002068416841F0806141602068816841F42A
:100C4000807181602168134632464C31A06B00F000
:100C5000D7F968681C49C006206806D0884224D1AC
:100C6000816811F0405F13D01FE08842F8D0174A26
:100C7000904203D1D1F80423D206F1D0144A904215
:100C800013D1D1F8041301F01F011029E8D30CE0AF
:100C9000816841F08041816007E0206C40F01000E5
:100CA0002064606C40F0010060640020F8BD00002A
:100CB0002C00002040420F000023014043050008A3
:100CC000C7050008B10500080020014000210140CF
:100CD000002201402DE9F0410446876D00F0C6FA7C
:100CE000064694F835000025022806D0802060656D
:100CF00084F834500120BDE8F0812068016821F0BB
:100D0000160101602068416921F080014161206C79
:100D100008B9A06C20B12068016821F008010160C9
:100D20002068016821F0010101600CE000F09EFAEA
:100D3000801B052807D920206065032084F8350032
:100D400084F83450D7E720680068C007EED194F8E3
:100D50005C103F208840B860012084F8350084F89A
:100D600034500020C7E790F83510022903D08021C5
:100D7000416501207047052180F835100068016841
:100D800021F0010101600020704700002DE9F843C7
:100D900004464FF00009CDF8009063484FF4165117
:100DA000A56D0068B0FBF1F72E6894F85C10082080
:100DB00000FA01F131420FD021680A6852070BD5C1
:100DC0000A6822F004020A6094F85C108840A86067
:100DD000606D40F00100606594F85C104FF0010810
:100DE00008FA01F0304208D021684969090604D5A3
:100DF000A860606D40F00200606594F85C1004200B
:100E00008840304208D021680968890704D5A86065
:100E1000606D40F00400606594F85C10102088401C
:100E2000304218D021680968090714D5A8602068E5
:100E30000168490304D50068000308D5A16C07E0E8
:100E40000168C90503D4016821F008010160216C23
:100E500009B12046884794F85C1020208840304231
:100E600031D021680968C9062DD5A86094F83500ED
:100E700005282068016806D0490347D500680003AB
:100E80001DD4616C1CE021F01601016020684169ED
:100E900021F080014161206C08B9A06C20B120686C
:100EA000016821F00801016094F85C103F2088403F
:100EB000A86084F8358084F83490216D1FE0E16BE0
:100EC00009B120468847606D00282BD0606DC007AF
:100ED00014D0052084F835002068016821F0010154
:100EE00001600098401C0090B84203D82068006858
:100EF000C007F6D184F8358084F83490E16C00297D
:100F000010D001B02046BDE8F04308470168C9058C
:100F1000D5D4016821F01001016084F8358084F88F
:100F20003490CCE7BDE8F8832C0000202DE9F04197
:100F3000044600F09BF906465CB1022084F83500B7
:100F4000002584F834502068016821F00101016017
:100F50000DE00120BDE8F08100F088F9801B052834
:100F600005D920206065032084F83500F2E7206869
:100F70000068C007F0D12268116820480140D4E918
:100F800001031843D4E90336334318436369184314
:100F9000A3691843E3691843236A18430843616A45
:100FA000042903D1D4E90B131943084310602068C6
:100FB0004069666A20F0070130460E430127042885
:100FC0000CD1A06A0643E06A40B12046FFF776FCE8
:100FD00020B14020606584F83570BAE7206846612A
:100FE0002046FFF757FC94F85C203F219140816038
:100FF000656584F835700020ACE700003F8010F094
:101000002DE9F0410446866D90F834000025012852
:101010000DD0012084F8340094F835700020012FA1
:1010200007D084F8340002252846BDE8F08102206C
:10103000FBE7022784F8357060652046FFF768FCFF
:1010400094F85C103F208840B0602068016841F04F
:1010500016010160206C20B12068016841F0080190
:1010600001602068016841F001010160DCE70000D7
:101070002DE9F84FDFF8BCA10022012503264FF02F
:101080000F090AF1040BAAF1040E00BF0B6805FA60
:1010900002F42340A34270D10F7907F00307012F18
:1010A00001D0022F16D187684FEA420806FA08FCE1
:1010B00027EA0C07D1F80CC00CFA08FC4CEA070C24
:1010C000C0F808C04768A7430C79C4F300149440E3
:1010D0003C4344600C79E443A4070AD0C4684FEA57
:1010E000420C06FA0CF7BC438F6807FA0CF727434B
:1010F000C7600C7904F00304022C12D1D40800EB71
:10110000840CDCF820405707FF0E09FA07F824EAA0
:101110000804D1F8108008FA07F848EA0408CCF867
:10112000208004684FEA420C06FA0CF7BC430F79A2
:1011300007F0030707FA0CF7274307604C6814F41D
:10114000403F70D03C4C276847F4804727602468B4
:1011500022F0030704F480440094384C07EB040C9D
:10116000DCF8084897074FEA177809FA08F7BC43F4
:10117000334FB84202D1002724E054E0314FB84247
:1011800001D101271EE0304FB84201D1022719E0FA
:101190002E4FB84201D1032714E02D4FB84201D1A0
:1011A00004270FE02B4FB84201D105270AE02A4F50
:1011B000B84201D1062705E0284FB84201D10727E0
:1011C00000E0082707FA08F72743CCF80878DAF890
:1011D00000405746D1F804C09C435FEACC2C00D5B0
:1011E0001C433C60DBF800405F46D1F804C09C43E0
:1011F0005FEA8C2C00D51C433C60DEF8004077464B
:10120000D1F804C09C435FEA8C3C00D51C433C6091
:10121000084F083F3C68D1F804C09C435FEACC3CCF
:1012200000D51C433C60521C102AFFF42FAFBDE8D0
:10123000F88F0000083C0140443802400030014073
:10124000000002400004024000080240000C02407E
:10125000001002400014024000180240001C02402E
:101260000AB1816170470904FBE70000014880680A
:101270007047000020000020024881680278114475
:1012800081607047200000200B4810B5016841F4D0
:1012900000710160016841F480610160016841F4FE
:1012A00080710160032000F09FF80F2000F006F825
:1012B00000F050F8002010BD003C024030B505465B
:1012C0001F4887B00024016841F0080101600068F0
:1012D00006A900F00800009001A800F031F9049878
:1012E000A8B100F04DF940001649174AB0FBF1F1E2
:1012F0001648491E026040F2E732C0E90324C0E903
:101300000114846100F0B6FB040003D015E000F086
:1013100037F9E9E70D4800F04BFC04000DD132200D
:1013200000F034F8102D07D200222946322000F0B8
:101330003BF80748056000E0012407B0204630BDB7
:101340004038024040420F00000C00408C07002053
:10135000240000200C4882B0016841F48041016003
:10136000006800F4804000900748001F016841F0C9
:10137000805101600068002200F0805000900F2131
:10138000901E02B000F010B844380240002809DB7B
:1013900000F01F02012191404009800000F1E0208F
:1013A000C0F8001170470000F0B40E4B1B680C46EB
:1013B000C3F30223C3F10705042D00D90425191D29
:1013C000072901D2002300E0DB1E012606FA05F101
:1013D000491E214099409E40761E16403143F0BC84
:1013E00002F0FBBC0CED00E0064900F007020868C3
:1013F0004FF6FF03184040EA0220034A10430860FA
:10140000704700000CED00E00000FA052DE9F04700
:101410000E46050065D0DFF81481D8F80000F7B259
:1014200000F00700B04207D288F80070D8F800003A
:1014300000F00700B04254D128683D4C810712D516
:10144000400703D5206840F4E0502060287800076A
:1014500003D5206840F4604020602068A96820F02F
:10146000F000084320602878C0072DD03049686814
:101470000839012812D0022813D0032811D0096896
:10148000890700292DDA216821F003010143216039
:10149000FFF7ECFE814641F2883A0EE009688903C5
:1014A000EFE709688901ECE7FFF7E0FEA0EB09012F
:1014B000514502D90320BDE8F0872068696800F033
:1014C0000C00B0EB810FEFD1D8F80010404601F0CE
:1014D0000701B14207D90770006800F00700B04269
:1014E00001D00120E7E72878400705D52068E968A2
:1014F00020F4E050084320602878000706D52068D3
:10150000296920F4604040EAC100206000F058F8EA
:101510002168084AC1F30311515CC84006490860BC
:1015200006480068FFF7CAFE0020C4E7003C0240FE
:1015300008380240044B00082C0000202400002042
:101540000F2202600C4A136803F003034360136820
:1015500003F0F0038360136803F4E053C360126880
:101560004FF4E05303EAD20202610448006800F03D
:10157000070008607047000008380240003C024045
:101580000448054900680968044AC1F38221515C96
:10159000C84070472C00002008380240144B000857
:1015A0000448054900680968044AC1F34231515CA6
:1015B000C84070472C00002008380240144B000837
:1015C000154810B5006810F00C02144813D04110F3
:1015D000042A0FD0082A0ED10F4C241F226823683A
:1015E00002F03F025B0207D52068C0F38810A0FB21
:1015F000010106E0084610BD2168C1F38811A1FB76
:1016000000010023FEF790FE2168C1F30141491C4F
:101610004900B0FBF1F010BD083802400024F4008E
:101620002DE9F84F04006ED02078DFF84C93C00706
:10163000A9F104054AD009F104000168C1F3810150
:10164000012908D00068C0F3810002280AD1D9F826
:101650000000400206D52868800337D5606800285E
:10166000E1D033E06068B0F5803F10D0B0F5A02F36
:10167000286810D020F480302860286820F480206A
:1016800028606068A8B1FFF7F1FD06460DE0286804
:1016900040F48030F4E740F480202860F7E700BF92
:1016A000FFF7E4FD801B642873D828688003F7D512
:1016B0000CE0FFF7DBFD064605E000BFFFF7D6FDB7
:1016C000801B6428F0D828688003F7D42078DFF8DE
:1016D000AC8280074FF0000A3ED5A748001D016884
:1016E00011F00C0F08D00068C0F3810002280BD164
:1016F000D9F80000400207D42868800716D5E068B2
:10170000012800D112E033E1E068B8B10120C8F847
:101710000000FFF7ABFD064605E000BFFFF7A6FDA2
:10172000801B0228C0D828688007F7D5286821695F
:1017300020F0F80040EAC10028600DE0C8F800A0E1
:10174000FFF794FD064604E0FFF790FD801B02289A
:101750001FD828688007F7D42078000722D5864F45
:1017600087486169703771B101210160FFF77EFD23
:10177000064604E0FFF77AFD801B022809D8386886
:101780008007F7D50EE0C0F800A0FFF76FFD064612
:1017900005E082E0FFF76AFD801B02287DD83868EB
:1017A0008007F7D42078400768D5DFF8CCB1002750
:1017B0000BF13C0BDBF80000C0000BD4DBF8001091
:1017C00041F08051CBF80010DBF80000012700F059
:1017D000805000906B4E3068C00510D4306840F4E3
:1017E00080703060FFF742FD009005E0FFF73EFD9E
:1017F0000099401A022850D83068C005F6D55E4ED0
:10180000A0686C3601280FD00528306810D020F071
:1018100001003060306820F004003060A068B8B18A
:10182000FFF724FD00900FE0306840F00100F4E77E
:1018300040F004003060F7E7FFF718FD0099411A07
:1018400041F28830814266D830688007F4D50EE0D6
:10185000FFF70CFD009007E0FFF708FD0099411A23
:1018600041F28830814256D830688007F4D42FB1D5
:10187000DBF8001021F08051CBF80010A069C8B34C
:101880003D49091D0968C1F3810102294AD0022896
:10189000504607D0C8F8600000E03CE0FFF7E6FCE7
:1018A00004463BE04746C8F86000FFF7DFFC064609
:1018B00005E000BFFFF7DAFC801B02282BD8286860
:1018C0008001F7D4D4E907010843A16A2E4A4908E8
:1018D00002EB0141626A41EA8211084394F82C103C
:1018E00040EA0161C9F8001001203866FFF7BEFC2C
:1018F000044606E03EE000BFFFF7B8FC001B0228EC
:1019000009D828688001F7D534E000BFFFF7AEFCA6
:10191000001B022802D90320BDE8F88F2868800147
:10192000F4D427E00128F7D0D9F80000E26900F4E8
:10193000800191421CD1226A00F03F01914217D1EF
:1019400047F6C071626A0140B1EB821F10D1A26AF2
:101950004FF0FF3300F4403103EB5202B1EB024F82
:1019600006D194F82C1000F07060B0EB016F01D03C
:101970000120D1E70020CFE70438024000004742B1
:10198000800E4742007000400000FFFF7047704724
:1019900010B590F83C20012A22D0012280F83C208A
:1019A000CA688C6822F4407222434C6822F4806238
:1019B00022430C6822F4006222430C6922F4805214
:1019C00022434C6922F400522243C969002322F4C5
:1019D00080420A4301684A6480F83C30002010BD10
:1019E000022010BD70B590F83C20012A32D00124AD
:1019F00080F83C40022280F83D2003685A689D68C8
:101A000022F070060A6832435A60134B02689A4209
:101A100014D0B2F1804F11D0104B9A420ED0104B1F
:101A20009A420BD00F4B9A4208D00F4B9A4205D0E6
:101A30000E4B9A4202D00E4B9A4204D1496825F0CF
:101A400080031943916080F83D40002180F83C10EC
:101A5000084670BD022070BD000001400004004037
:101A600000080040000C004000040140004001401C
:101A70000018004010B5040003D094F83D0010B1E8
:101A800007E0012010BD002084F83C00204600F053
:101A90001FF8022084F83D00211D206801F034FD6C
:101AA000012084F8460084F83E0084F83F0084F862
:101AB000400084F8410084F8420084F8430084F830
:101AC000440084F8450084F83D00002010BD00006B
:101AD00038B505462F49026800208A4209D12E48B0
:101AE000016841F001010160006800F00100009010
:101AF00038BD2949294B091F9A4223D10A6842F06F
:101B000002020A600968274C01F002010091244991
:101B100021604FF0206161604021C4E90210090199
:101B20002161890061618900C4E906102062606258
:101B30002046FFF7FBF908B1FEF7FFFE6C62AC63CD
:101B4000A56338BD184882420ED1086840F01000E5
:101B500008600868002200F010000090052136207F
:101B6000FFF722FC362010E010488242E9D10868D5
:101B700040F4807008600868002200F480700090D3
:101B800005212D20FFF710FC2D20BDE83840FFF780
:101B9000FDBB00000000014044380240000400404A
:101BA00070600240DC050020001000400020004072
:101BB00090F83D10012901D001207047022180F8E2
:101BC0003D100168CA6842F00102CA60006811490C
:101BD000884214D0B0F1804F11D00F4988420ED006
:101BE0000E4988420BD00E49884208D00D498842E0
:101BF00005D00D49884202D00C49884204D1816841
:101C000001F00701062903D0016841F001010160DC
:101C10000020704700000140000400400008004020
:101C2000000C00400004014000400140001800404A
:101C300070B5044690F83C000025012817D0012615
:101C400084F83C60022084F83D002068826822F01D
:101C5000770222F47F4282600868502838D00DDC79
:101C600020284FD005DC90B3102811D14AE0022083
:101C700070BD302846D040280AD13BE060282FD0E4
:101C800070280DD0B0F5805F03D0B0F5005F12D0A2
:101C9000012584F83D60002084F83C00284670BD92
:101CA000CB68D1E90121206801F01CFD2068816822
:101CB00041F0770109E0CB68D1E90121206801F00A
:101CC00011FD2068816841F480418160E1E719E0FD
:101CD000CA684968206801F0D9FD5021206806E0F3
:101CE000CA684968206801F0E2FD6021206801F0BF
:101CF00003FDCEE7CA684968206801F0C7FD4021AE
:101D00002068F4E7226801461046F0E72DE9F0412B
:101D10000D46040003D094F83D0018B108E00120FE
:101D2000BDE8F081002084F83C00204600F040F837
:101D3000022084F83D002068816844F20702914344
:101D40008160211D206801F0DFFB226890689169A5
:101D5000166A2B68AF69034340F20330814341EABE
:101D60000721A868EF6908434FF6FC418843E968FA
:101D700040EA0720014328692F6A000140EA073042
:101D8000084369686D6926F0AA0646EA05152943E5
:101D900093602268906154F8460B0162012004F8B8
:101DA0001F09E0752076E0762077A0750020B7E760
:101DB00070B586B0044614216846FEF75EFB3548D0
:101DC00024680021334A103803250223B4F1804FE0
:101DD0001ED0314EB44234D1146844F0040414606F
:101DE000126802F004020592026842F008020260E2
:101DF000006800F00800059028030090CDE901314B
:101E0000CDE9031369462548FFF732F906B070BDE6
:101E1000146844F001041460126802F00102059293
:101E2000026842F0010202600068009500F00100C3
:101E30000590CDE901310120CDE90310694618482C
:101E4000E2E7184A9442E1D1124A121D146844F0A4
:101E500002041460126802F002020592026842F065
:101E600004020260006800F004000590C0200090A9
:101E7000CDE90131CDE9031569460B48FFF7F8F8C4
:101E8000002205212D20FFF78FFA2D20FFF77EFA83
:101E9000BCE700004038024000080040000C02404F
:101EA00000000240000401400008024070B590F8B4
:101EB0003E60044690F83F5090F8423090F843203E
:101EC000022021B104290ED0012E1BD114E0012ED5
:101ED00018D1012B16D184F83E0084F8420001226B
:101EE0000021206820E0012D0CD1012A0AD184F8BC
:101EF0003F0084F8430014E0012D03D1012B01D1F0
:101F0000012A01D0012070BD84F83E0084F83F0012
:101F100084F8420084F8430001220021206801F087
:101F20005FFB01220421206801F05AFB2068016850
:101F300041F001010160002070BD704770472DE93C
:101F4000F04104460068C66805694FF00007A9071C
:101F500013D5B10711D5F91E016101202077206842
:101F600080698007204602D0FFF7E8FF04E000F018
:101F7000C1F8204600F053F92777680716D5700797
:101F800014D521686FF004000861022020772068D2
:101F9000806910F4407F204602D0FFF7CFFF04E0B5
:101FA00000F0A8F8204600F03AF92777280715D561
:101FB000300713D521686FF00800086104202077EE
:101FC0002068C0698007204602D0FFF7B7FF04E011
:101FD00000F090F8204600F022F92777E80616D5A1
:101FE000F00614D521686FF01000086108202077F2
:101FF0002068C06910F4407F204602D0FFF79EFFA2
:1020000004E000F077F8204600F009F92777E807A8
:1020100008D0F00706D021686FF001000861204663
:1020200000F044FA280608D5300606D521686FF07E
:10203000800008612046FFF7A9FC680608D57006F5
:1020400006D521686FF040000861204600F094FA40
:10205000A8060AD5B00608D521686FF020000861EF
:102060002046BDE8F041FFF792BCBDE8F0810000DA
:1020700010B586B0044614216846FEF7FEF92368C1
:10208000174C002117480222A34212D1036843F0E3
:1020900010030360006800F0100005904FF4285012
:1020A0000090CDE901210120CDE9031069460E48D9
:1020B00012E00E4CA34211D1036843F00103036008
:1020C000006800F00100059040200090CDE901215A
:1020D000CDE9031269460648FEF7CAFF06B010BDF7
:1020E000000001403038024000100240000400406F
:1020F00000000240704770B5044690F83C0000268E
:102100000D4601280FD0012084F83C006AB1042A52
:102110001DD0082A2FD00C2A3FD00126002084F899
:102120003C00304670BD022070BD206801F0ECFA22
:102130002068816941F0080181612068816921F08E
:1021400004018161206881692A69114311E02068D6
:1021500001F00AFB2068816941F400618161206817
:10216000816921F480618161206881692A6941EA7D
:1021700002218161D2E7206801F02CFB2068C1694F
:1021800041F00801C1612068C16921F00401C16109
:102190002068C1692A69114311E0206801F04EFBF3
:1021A0002068C16941F40061C1612068C16921F4FE
:1021B0008061C1612068C1692A6941EA0221C16167
:1021C000ACE710B5040003D094F83D0010B107E06F
:1021D000012010BD002084F83C00204600F01EF8CD
:1021E000022084F83D00211D206801F08DF90120B6
:1021F00084F8460084F83E0084F83F0084F84000EC
:1022000084F8410084F8420084F8430084F84400D4
:1022100084F8450084F83D00002010BD70477047E9
:102220007047000010B50446022249B104290ED0BF
:10223000082913D094F84100012816D0012010BDC0
:1022400094F83E000128F9D184F83E200FE094F87C
:102250003F000128F2D184F83F2008E094F84000C4
:102260000128EBD184F8402001E084F841200122CC
:10227000206801F0B5F916492068164A884201D055
:10228000904203D1436C43F4004343642068884286
:1022900013D0B0F1804F10D00F4988420DD00F49B4
:1022A00088420AD00E49884207D0904205D00D4995
:1022B000884202D00C49884204D1816801F00701AC
:1022C000062903D0016841F001010160002010BD22
:1022D00000000140000401400004004000080040EC
:1022E000000C004000400140001800402DE9F04182
:1022F00017460D0004464FF000060CD0042D11D0F7
:10230000082D16D094F84100022819D094F8410005
:10231000012818D07CE094F83E00022810D094F8F0
:102320003E00F5E794F83F00022809D094F83F00FA
:10233000EEE794F84000022802D094F84000E7E766
:102340000220BDE8F081002F62D0002B60D04D4903
:102350004D4ADFF838C102204DB1042D18D0082DA8
:1023600027D084F841000C2D44D0012687E084F862
:102370003E00606AC163606A39460264606AC0F800
:102380004CC02268606A3432FEF73AFE88BB21E016
:1023900084F83F00A06AC163A06A39460264A06A5B
:1023A000C0F84CC02268A06A3832FEF729FE00BB94
:1023B00015E084F84000E06AC163E06A39460264CF
:1023C000E06AC0F84CC02268E06A3C32FEF718FEB2
:1023D00078B909E02068C16841F400711EE0206806
:1023E000C16841F4806119E02068C16841F400616E
:1023F00014E00DE0206BC163206B39460264206B52
:10240000C0F84CC02268206B4032FEF7F9FD08B1DD
:10241000012096E72068C16841F48051C160012223
:102420002946206801F0DCF819492068194A8842D9
:1024300001D0904203D1436C43F4004343642068CD
:10244000884213D0B0F1804F10D0134988420DD08C
:10245000124988420AD01249884207D0904205D0DA
:102460001049884202D01049884204D1816801F0A5
:102470000701062903D0016841F0010101603046DF
:102480005FE70000FB350008593600089136000868
:10249000000001400004014000040040000800402A
:1024A000000C004000400140001800402DE9F041C0
:1024B00004460068284988423BD101F0A3FC274A22
:1024C0001168496A264B00EE101AB8EE400A80EDFA
:1024D000020A1968496A234D00EE101AB8EE400A44
:1024E00080ED0E0A2968496ADFF87CC000EE101AF8
:1024F000DFED1E0A0021B8EE400A80ED1A0A00BF87
:1025000001EB410600EB061696ED020A10EE107A7A
:10251000674501DD30EE600A491CC9B286ED020A4A
:102520000329EDD3116800204862196848622968C0
:1025300048620F492068884201D1FEF79DFE0D498F
:102540002068884205D100F08FFEBDE8F04101F01F
:1025500097BFBDE8F0810000001000402C0400206F
:10256000BC0400204C05002000401C4600008047B1
:10257000000C004000200040704738B5044690F839
:102580004200202801D0022038BD61B15AB101209B
:10259000206300206063204601F0CAFB0028F3D1CD
:1025A000216B012901D0012038BD21680A684968E2
:1025B000009121680C3151E8002F42F0100241E8EF
:1025C0000023002BF5D138BD10B504460E488442D7
:1025D0000AD101220D49FFF7D0FF0B48A83000684F
:1025E000016821F0080101600748483884420AD197
:1025F00005220749FFF7C1FF03484830006801681A
:1026000021F00801016010BD8406002000000020B8
:102610009B00002070470000F8B501680446086878
:10262000CA684B6910F00F0F4FF0000559D003F046
:10263000010602F49077374365D0C10705D0D10574
:1026400003D5616C41F001016164410705D5D907EB
:1026500003D0616C41F002016164810705D5D9079F
:1026600003D0616C41F004016164010707D502F0F9
:102670002001314303D0616C41F008016164616C59
:1026800000293AD0800604D5900602D5204601F0F4
:1026900067FA20684069616CC0F38010090700D4B4
:1026A00060B3204601F027FA20684069400621D532
:1026B0002068143050E8001F21F0400140E800126B
:1026C000002AF5D1E06BA8B16E490165E06BFEF719
:1026D0004AFB002811D0E06B016D01B0BDE8F0406D
:1026E000084783060FD593060DD52046BDE8F84070
:1026F00001F036BA2046FFF78DFFF8BD2046FFF700
:1027000089FF6564F8BD266B2023012E7DD1C606A6
:102710007BD5D60679D508684868009048694FF09F
:102720000206400641D5E16B086840680004000CD1
:10273000E8D0A28D8242E5D9E085C869B0F5807FF6
:102740002DD020680C3050E8001F21F4807140E843
:102750000012002AF5D12068143050E8001F21F043
:10276000010140E80012002AF5D12068143050E839
:10277000001F21F0400140E80012002AF5D184F842
:102780004230256320680C3050E8001F21F0100112
:1027900040E80012002AF5D1E06BFEF79BFA666371
:1027A000A08DE18D401A81B22AE0A08DE18D401A02
:1027B00081B2E08D0028A5D00029A3D022680C3278
:1027C00052E8000F20F4907042E80007002FF5D186
:1027D0002068143050E8002F22F0010240E8002762
:1027E000002FF5D184F84230256320680C3050E882
:1027F000002F22F0100240E80023002BF5D1666381
:102800002046FFF7E1FEF8BDFFE705062BD51506CC
:1028100029D594F841002128F5D1A068B0F5805F52
:1028200001D12069B0B1206A411C21622168007881
:102830004860E08C401E0004000CE084E3D1206876
:10284000C16821F08001C1602068C16841F0400189
:10285000C160D8E7206A0088C0F308004860206A99
:10286000801C2062E5E74006CDD55006CBD5CA686E
:10287000204622F04002CA6084F8413000F0D8F8C7
:10288000C1E70000F939000870B5040004D094F8DD
:102890004100002510B106E0012070BD84F84050D1
:1028A000204600F023F8242084F841002068C16805
:1028B00021F40051C160204601F0B4F9206801699B
:1028C00021F4904101612068416921F02A014161B0
:1028D0002068C16841F40051C1606564202084F81B
:1028E000410084F842006563002070BD2DE9F0418D
:1028F00086B0064614216846FDF7BFFDDFF80CC11F
:1029000002223168002442480323072597064FF42A
:102910008068614537D13E491431D1F800C04CF090
:10292000100CC1F800C0096801F0100105910168A0
:1029300041F0010101600068694600F00100059066
:1029400058028DE81500CDE903353248FEF790FBBB
:10295000324D31482860C5E90174C5E903486C610E
:10296000AC61EC612C6228466C62FEF7DFFA08B1BC
:10297000FDF7E3FFF563002205212520AE63FEF796
:1029800013FD25203CE0DFF898C061453AD120498D
:102990001031D1F800C04CF4802CC1F800C0096897
:1029A00001F480210591016841F002010160006895
:1029B000694600F0020005904FF440608DE8150074
:1029C000CDE903351748FEF753FB144D1648603523
:1029D0002860C5E90174C5E903486C61AC61EC612C
:1029E0002C6228466C62FEF7A1FA08B1FDF7A5FF3C
:1029F000F563002205212720AE63FEF7D5FC2720D2
:102A0000FEF7C4FC06B0BDE8F081000000100140F4
:102A1000303802400000024040640240CC060020F2
:102A200000480040000402402860024070477047A0
:102A30007047FEE738B50C4C607A40B100F018F8EA
:102A40000090BDF8000060819DF8020020730748E7
:102A50000068606000F0EAFBD4F80A10BDE8384076
:102A60000246402000F042BC245D002010000020FF
:102A700008B508280ED2DFE800F00D040614161879
:102A80001A1C0D4800E00D480188ADF80010807850
:102A90008DF80200BDF800009DF8021040EA0140E8
:102AA00008BD0748F0E70748EEE70748ECE70748A6
:102AB000EAE70748E8E700001C4B00081F4B000846
:102AC000224B0008254B0008284B00082B4B000820
:102AD0002E4B000838B50C4C607A60B1FFF7C8FF88
:102AE0000090BDF8000060819DF802002073227AFA
:102AF000D4F80A1002E0D4F80A106422BDE8384085
:102B0000402000F0F3BB0000245D00200448007862
:102B100018B1012803D1FFF7DDBFFFF78BBF704766
:102B2000245D002003480121017046210172022129
:102B300041727047245D0020074840F67951406893
:102B4000884201D9012000E00020044901F8040B6B
:102B5000034800F0BFBE000010000020A0000020CD
:102B60009B00002030B50378AA2B16D190F82630B0
:102B7000BB2B12D143780B7013B1012B0DD102E0A6
:102B8000C3784B7209E0C3784B7283780B72837AF7
:102B90008B72C37A8B72037B8B7290F82710CC29CF
:102BA00036D190F82C10DD2932D190F82810117010
:102BB00001292DD1322390F829505C42002125B102
:102BC000012D05D0022D08D105E0A2F8941004E0F3
:102BD000A2F8943001E0A2F8944090F82A5025B170
:102BE000012D05D0022D08D105E0A2F8961004E0D1
:102BF000A2F8963001E0A2F8964090F82B0040B180
:102C0000012809D0022803D15FF00100A2F8980042
:102C100030BDA2F8981030BD4FF0FF30F6E700004D
:102C200070B500260123B1F1FF3F0BD011B101298E
:102C30000CD102E063F3070506E063F3070566F3D2
:102C40000F2503E066F3070563F30F2515490968AF
:102C500020B1012809D0022816D10EE063F30F0439
:102C6000022060F31F444A630EE0042060F30F0467
:102C7000082060F31F448A6306E0102060F30F040D
:102C8000202060F31F44CA63074EEAB2A1B2304667
:102C9000FEF7E6FAC5F30722210C3046BDE8704086
:102CA000FEF7DEBAE4030020000802407FB50024EE
:102CB0001A48009401940294174903940160012575
:102CC0004FF480310561C0E90114057680F8204099
:102CD0001349C0E90A140226C661C46080F8305066
:102CE0004561FDF7D6FE08B1FDF727FE0320CDE9CB
:102CF0000005694602940948FDF722FE08B1FDF778
:102D00001CFE0096694605480196FDF719FE00284D
:102D100001D0FDF712FE7FBD002001403C030020E2
:102D20000100000F194808B5016841F40011016065
:102D3000016801F400110091016841F48001016013
:102D40000068002200F48000009005210C20FEF7AE
:102D50002BFB0C20FEF71AFB002205210F20FEF7AB
:102D600023FB0F20FEF712FB002205213820FEF77F
:102D70001BFB3820FEF70AFB002205213A20FEF754
:102D800013FBBDE808403A20FEF700BB3038024094
:102D900010B596B01C2211496846FDF73CFB002196
:102DA000684601F0BFF80E4C0C491C2220601C3113
:102DB00007A8FDF730FB002107A801F0B3F8074989
:102DC00060601C2238310EA8FDF725FB00210EA8FB
:102DD00001F0A8F8A06016B010BD0000A84A0008D5
:102DE0000400002030B587B014216846FDF745FB8C
:102DF00021480024016841F080010160016801F070
:102E000080010591016841F004010160016801F051
:102E100004010591016841F001010160016801F0C0
:102E200001010591016841F010010160016801F0A4
:102E300010010591016841F002010160016801F093
:102E400002010591016841F00801016000680B4D25
:102E500000F00800059000223F212846FEF700FA06
:102E60003F2000900120CDE90104694628460394E3
:102E7000FEF7FEF807B030BD3038024000080240CF
:102E80000B4810B50949016040F2E731416000216B
:102E90006822C0E9021201618161FEF7EBFD0028A2
:102EA00003D0BDE81040FDF748BD10BD0020004034
:102EB0009405002010B596B000240F94109411943E
:102EC000129413941C2168461494FDF7D6FA20211D
:102ED00007A8FDF7D2FA31482F490160A721C0E9C0
:102EE000011440F2E731C0E903148021C0E9054133
:102EF000FEF7C0FD08B1FDF720FD4FF480500F90A4
:102F00000FA92648FEF794FE08B1FDF716FD2348E9
:102F1000FFF757F908B1FDF710FD139413A91F48E7
:102F20001494FEF75FFD08B1FDF707FD6020CDE9C1
:102F300000040294039404940594002269461748FF
:102F40000694FFF7D8F808B1FDF7F7FC04226946AC
:102F50001248FFF7D0F808B1FDF7EFFC08226946E8
:102F60000E48FFF7C8F808B1FDF7E7FC079408948E
:102F700009944FF400500A94CDE90B4007A9074883
:102F80000E94FEF705FD08B1FDF7D7FC0348FFF7E7
:102F90006FF816B010BD000000000140E4030020EF
:102FA00010B58CB024216846FDF767FA0024154857
:102FB00009944FF080410A94C0E900144FF6FF7164
:102FC000C0E90241046184610320CDE900040120CD
:102FD000CDE902040494CDE9054007946946094807
:102FE0000894FEF793FE08B1FDF7A7FC099409A920
:102FF00004480A94FEF7F6FC002801D0FDF79DFC7A
:103000000CB010BD2C04002010B58EB00024079425
:10301000089409940A940B941C2168460C94FDF7BB
:103020002CFA1D481B49C0E900146821C0E902417F
:1030300004618461FEF71EFD08B1FDF77EFC4FF4CC
:103040008050079007A91448FEF7F2FD08B1FDF77C
:1030500074FC1148FFF7B5F808B1FDF76EFC0B944E
:103060000BA90D480C94FEF7BDFC08B1FDF765FCFB
:103070006020CDE9000402940022694606480494C9
:10308000FFF739F808B1FDF758FC0348FEF7F0FFE9
:103090000EB010BD000400407404002010B58CB0C8
:1030A00024216846FDF7E9F90024164809941449DB
:1030B0000A94C0E900144FF6FF71C0E902410461AF
:1030C00084610320CDE900040120CDE902040494C9
:1030D000CDE90540079469460A480894FEF716FEB4
:1030E00008B1FDF72AFC099409A906480A94FEF7DD
:1030F00079FC002801D0FDF720FC0CB010BD0000C9
:1031000000080040BC0400201CB500240E480094B8
:103110000C49019401605321C0E9011440F2E731E8
:103120008461C160FEF7A6FC08B1FDF706FC0094BF
:10313000694605480194FEF755FC002801D0FDF7CB
:10314000FCFB1CBD001000400405002010B58CB035
:1031500024216846FDF791F9002416480994144982
:103160000A94C0E900144FF6FF71C0E902410461FE
:10317000446184610320CDE900040120CDE902040B
:103180000494CDE90540079469460A480894FEF77F
:10319000BDFD08B1FDF7D1FB099409A905480A94C2
:1031A000FEF720FC002801D0FDF7C7FB0CB010BDD6
:1031B000000401404C0500200C4810B50A4901608C
:1031C0004FF416514160002181600C22C160C0E9BA
:1031D00004128161C161FFF757FB002803D0BDE8ED
:1031E0001040FDF7AABB10BD001001403C060020B6
:1031F0000C4810B50A4901604FF4E13141600021EB
:1032000081600C22C160C0E904128161C161FFF7D5
:103210003BFB002803D0BDE81040FDF78EBB10BD7E
:103220000048004084060020FEE7FEE740F2DC5143
:10323000884201D2002070476421A0F2DC5048434C
:1032400000EE100ADFED070AB8EE400A80EE201A01
:10325000BCEEC10A10EE100AC0B26428EBD964209B
:10326000704700000080BB444FF4C363024A002152
:103270000248FFF73BB80000C4440020740400205B
:1032800010B5C0F30724174AC3B2C0F3074014FBBC
:1032900001F400EE104AF8EE400A9FED130A80EEAA
:1032A000801AFCEEC10A10EE904A547013FB01F331
:1032B00000EE903AF8EE600A80EE801AFCEEC10A49
:1032C00010EE903A137010FB01F000EE900AF8EE49
:1032D000600A80EE801ABCEEC10A10EE100A9070EF
:1032E00010BD0000980000200000C84210B50B4639
:1032F000044611461846FFF7C3FF2046BDE81040BC
:10330000AFF300802DE9F04140284FD80024284B2E
:103310000121DFF8A0803AE05E7804EB440500224A
:1033200008EB4515C2F1070C01FA0CF73E4201D03B
:10333000432700E0222745F82270521CD2B2082A07
:10334000F0D393F800600822C2F10F0C01FA0CF7D9
:103350003E4201D0432700E0222745F82270521C4C
:10336000D2B2102AF0D393F802601022C2F11707EC
:1033700001FA07F73E4201D0432700E0222745F833
:103380002270521CD2B2182AF0D3641CE4B28442D8
:10339000C2D300200246414601EB800303F580536F
:1033A000401CC0B2C3F800281828F5D3BDE8F0814E
:1033B00098000020C4440020FDF710FAFDF724FA1D
:1033C000FDF72AFA012000F0A1FDF7E7FFF79EFBC9
:1033D000012000F09BFDF9E700F018FD054600F024
:1033E00011FD0446FFF7A8FBFFF79CFB2246294688
:1033F0000348FFF7B7FB012000F088FDF2E700006B
:10340000BC00002010B5502080F31188BFF34F8F0F
:10341000BFF36F8F01F07AFA18B104494FF0805072
:103420000860002080F3118810BD000004ED00E06A
:1034300030B593B030216846FDF71FF814210CA871
:10344000FDF71BF81D480025016841F0805101601F
:10345000006800F0805011901948016841F48041E3
:1034600001600068022400F4804011900120009067
:10347000000401908001CDE9064008AA0420A8219B
:1034800082E813000B906846FEF7CAF808B172B6DE
:10349000FEE70CA90F2081E831004FF4A0500F90F7
:1034A0004FF48050109005210CA8FDF7AFFF0028C5
:1034B00001D072B6FEE713B030BD000040380240C4
:1034C000007000400248016841F4700101607047DB
:1034D00088ED00E00148FEF732BD00008C070020B7
:1034E0000148FEF72CBD00000405002010B504487B
:1034F000FEF725FDBDE810400248FEF720BD0000A4
:103500004C05002094050020F0B50268294C2A4D96
:103510002A4E2B4F2B4B4FF0804CA04209D06045D8
:1035200007D0A84205D0B04203D0B84201D098429B
:1035300004D122F0700E4A6842EA0E02A0421BD06B
:10354000604519D0A84217D0B04215D0B84213D068
:10355000984211D01C4DA8420ED01C4DA8420BD051
:103560001B4DA84208D01B4DA84205D01A4DA842B9
:1035700002D01A4DA84203D122F44075CA682A43EA
:103580004D6922F080022A4302608A68C2620A689A
:103590008262A04201D0984201D1096901630121F0
:1035A00041610169C90703D0016921F0010101618D
:1035B000F0BD000000000140000400400008004091
:1035C000000C004000040140004001400044014064
:1035D0000048014000180040001C0040002000404E
:1035E00010B501F01F030121046A99408C43046265
:1035F000016A9A401143016210BD10B5846B01212C
:10360000626A824205D12177C069F8B984F83E1018
:103610001CE0A26A824206D102222277C069A8B9C0
:1036200084F83F1012E0E26A824206D10422227737
:10363000C06958B984F8401008E0226B824205D175
:1036400008222277C06908B984F841102046FEF7A5
:10365000E6FD0020207710BD10B5846B616A8142C1
:1036600001D101200DE0A16A814201D1022008E0D0
:10367000E16A814201D1042003E0216B814201D142
:10368000082020772046FEF7CBFD0020207710BDD4
:1036900010B5846B0121626A824203D1217784F8DC
:1036A0003E1019E0A26A824204D10220207784F8F9
:1036B0003F1011E0E26A824204D10420207784F8AE
:1036C000401009E0226B824204D10820207784F860
:1036D000411001E084F83D102046FEF72EFC00204A
:1036E000207710BD10B5846842EA032224F47F4499
:1036F0000A432243826010BD826822F070020A43AE
:1037000042F0070181607047F0B5036A026A22F057
:103710000102026242688469124E24F073050C684B
:103720002C4323F002058B682B430D4DA84201D09A
:10373000B04205D123F00807CB683B4323F00403D4
:10374000A84201D0B04205D14D6922F44072154320
:103750008A692A4342608461496841630362F0BD1B
:103760000000014000040140F0B5026A036A23F042
:1037700010030362436884690D6824F4E64444EA54
:1037800005248D6822F0200242EA05120F4D104EEA
:10379000A84201D0B04206D1CF6822F0800242EAAE
:1037A000071222F04002A84201D0B04207D14D6971
:1037B00023F4406343EA85038D6943EA850343604C
:1037C0008461496881630262F0BD0000000001402D
:1037D00000040140F0B5026A036A23F480730362B7
:1037E0004368C46922F4007224F073050C68124E19
:1037F0002C438D6842EA05220E4DA84201D0B0420A
:1038000006D1CF6822F4006242EA072222F48062E5
:10381000A84201D0B04207D14D6923F4405343EA96
:1038200005138D6943EA05134360C4614968C163A8
:103830000262F0BD000001400004014030B5046A9E
:10384000026A22F4805202624268C3690D6823F45E
:10385000E64343EA05238D6824F4005444EA053422
:10386000084DA84202D0084DA84204D14D6922F467
:10387000804242EA85124260C36149680164046281
:1038800030BD0000000001400004014010B5036A93
:10389000046A24F001040462846924F0F00444EA18
:1038A000021423F00A020A438461026210BD10B5BB
:1038B000036A046A24F010040462846923F0A003FC
:1038C00024F4704444EA023243EA01118261016245
:1038D00010BD0000F0B500231A46845C0D2C02D008
:1038E0000A2C00D05B1C521C052AF6DB012B09D0E8
:1038F000022B13D0032B10D13E4B0022845C0D2CE5
:1039000031D045E00022835C0D2B03D00A2B01D07F
:10391000303B0B60521C052AF5DBF0BD00226FF036
:103920002F03845C0D2C07D1022A05DB841814F8C0
:10393000015C14F8024C0BE044780D2C03D00478A1
:103940000D2C03D00BE00578047901E00579C478EB
:10395000303C04EB840403EB44042C440C60521C04
:10396000052ADEDBF0BD032A12DB841814F8016C93
:1039700014F8035D303D647805EBC50707EB0515CA
:1039800004EB840406EB850503EB44042C442BE094
:10399000847845780D2C05D00D2D05780CD00D2D93
:1039A00014D022E00479303C04EBC40606EB041486
:1039B00005EB8404057812E0C478303C04EBC406BF
:1039C00006EB041405EB8404057908E0303C057926
:1039D00004EBC40606EB041405EB8404C57805EB80
:1039E000850503EB45052C440C60521C052A85DB3C
:1039F000F0BD0000F0FDFFFF10B5806B0021C18518
:103A0000C184FEF707FE10BD70B5846B2068406965
:103A100094F84110C0F3C0100025212904D118B139
:103A2000E584204600F08EF82068406994F8421042
:103A3000C0F38010222904D118B1E585204600F09A
:103A40005AF8606C40F0100060642046FEF7E2FD1A
:103A500070BD10B50146806B096809684FF000021F
:103A6000C9052ED4C28501680C3151E8003F23F40A
:103A7000807341E80034002CF5D10168143151E81D
:103A8000003F23F0010341E80034002CF5D1016828
:103A9000143151E8003F23F0400341E80034002C8A
:103AA000F5D1202180F84210016B012909D101686C
:103AB0000C3151E8003F23F0100341E80034002CA2
:103AC000F5D14263016B012902D0FEF7AFFF10BDB3
:103AD000818DFEF779FD10BD10B5806B012141632A
:103AE000016B012902D0FEF7A2FF10BD818D4908AC
:103AF000FEF76AFD10BD01680C3151E8002F22F479
:103B0000907241E80023002BF5D10168143151E88F
:103B1000002F22F0010241E80023002BF5D1016BB8
:103B2000012909D101680C3151E8002F22F010025F
:103B300041E80023002BF5D1202180F8421000211C
:103B40000163704701680C3151E8002F22F0C00278
:103B500041E80023002BF5D1202180F84110704767
:103B600008B590F84210222901D0022008BD8268D1
:103B70004FF480539A4201D1016921B1816A9A427E
:103B80001BD04AB10AE00268816A5268C2F3080297
:103B90000A80816A891C08E0026972B10268526871
:103BA00002F07F020A70816A491C8162C18D491E40
:103BB0000904090CC18503D01BE002685268F1E7D3
:103BC0000168CA6822F02002CA600168CA6822F44B
:103BD0008072CA6001684A6922F001024A612021AC
:103BE00080F8421000214163026B012A03D0FEF7E6
:103BF0001DFF002008BD016301680C3151E8002F52
:103C000022F0100241E80023002BF5D101680A6878
:103C1000D20602D50A6849680091818DFEF7D4FC6E
:103C2000E7E7000070B5044600680169E26821F426
:103C30004051114301612169A068E269084361694B
:103C4000114308432168CA6849F20C639A4302434E
:103C5000CA6020684169A26921F440711143416141
:103C600031492068884202D03049884202D1FDF7AC
:103C700097FC01E0FDF784FCE2690023192164252B
:103C80003226B2F5004F626828D0A0FB0101930FE5
:103C90009200FCF749FB0146B0FBF5F06FF018020B
:103CA000504301EB800006EB0010B0FBF5F000F094
:103CB000F002B1FBF5F002EB0012B1FBF5F06FF092
:103CC0001803584301EB800006EB0010B0FBF5F041
:103CD00000F00F0021681044886070BDA0FB010156
:103CE00092185B41FCF720FB0146B0FBF5F00201A6
:103CF000B1FBF5F06FF01803584301EB800006EBC1
:103D0000C000B0FBF5F000F0F80002EB4002B1FBA0
:103D1000F5F0584301EB800006EBC000B0FBF5F076
:103D200000F00700D6E70000001001400014014039
:103D300038B58162044682850020134660642222E1
:103D400084F84220E56B1B4AEA63E56B1A4A2A6451
:103D5000E56B1A4AEA64E26B10650A462168E06B7B
:103D6000091DFDF74DF92068016840680090206941
:103D700048B120680C3050E8001F41F4807140E8E1
:103D80000012002AF5D12068143050E8001F41F0DD
:103D9000010140E80012002AF5D12068143050E8F3
:103DA000001F41F0400140E80012002AF5D1002038
:103DB00038BD0000533A0008D93A0008093A000813
:103DC0000148FEF729BC00003C0600200148FEF730
:103DD00023BC000084060020FEE70907090E002826
:103DE00004DB00F1E02080F80014704700F00F00C1
:103DF00000F1E02080F8141D7047002800DA4042EE
:103E000000B2704700487047585D00200048704776
:103E1000245D0020FDF738FAFFF70AFBFEF7E2FF0A
:103E2000FEF780FFFFF7F0F8FEF740FFFFF742F8DC
:103E3000FFF7B6F8FFF732F9FFF766F9FFF786F9F3
:103E4000FFF71EF8FFF7D4F9FFF7B6F908221E496D
:103E50001E48FCF795FE1E48FDF7AAFE1D48FDF71B
:103E6000A7FE3C211C48FEF721F83C211B48FEF729
:103E70001DF83C211A48FEF719F800211948FEF7F1
:103E8000D1F904211748FEF7CDF908211548FEF7AE
:103E9000C9F92C2214491548FEF76FFB1448006835
:103EA000016821F008010160052212491248FEF75D
:103EB00064FB12480068016821F008010160FEF708
:103EC00067FF00F02AF8FEE7100000203C03002006
:103ED00094050020040500202C040020BC040020D0
:103EE0004C050020E4030020BC00002084060020D4
:103EF0002C0700209B0000203C060020CC06002060
:103F000001460020842900D0C81C704710B500B9B4
:103F1000012000F097FB002010BD10B500F0B8FBA9
:103F2000002010BD7FB50D4604464169B0F9080078
:103F300081B1A16971B1FFF7E3FFD4E905128DE802
:103F40000700D4E900102B46226900F0B4FC03906E
:103F500004B070BDFFF7D4FF03A9CDE90001208AAA
:103F60002B4682B2D4E9001000F078FC012801D081
:103F70000020EDE70398EBE7C0ED061A80EC030A9A
:103F8000704730EE600AB0EE002A80ED030A90ED33
:103F9000071AF0EE401A41EE421A90ED082A70EE30
:103FA000410A71EE821A90ED002A62EE200A90ED2D
:103FB000012A42EE000A90ED022A42EE210AC0EDEB
:103FC000040A80ED081A80ED070A90ED060AB1EEAA
:103FD000401AF4EEC10AF1EE10FA02D280ED041A92
:103FE00006E0F4EEC00AF1EE10FA01DD80ED040AFD
:103FF00090ED050AD0ED040A30EE200A80ED050AA6
:10400000704700002DE9F041184C0F460546E66860
:104010002068001D00F04EFA38B9206890F82C1086
:1040200001208840216981432161681C07D137B193
:104030002168BDE8F0410E48091D00F07FBA2068F4
:104040003544B5424560216805D2A06BBDE8F0411A
:10405000091D00F05BBA606B091D00F057FAA06AF9
:10406000854200D2A562BDE8F0810000300000204A
:10407000B00800202DE9F041054600F06BFA2E4C07
:10408000A068401CA06020682C4F10B1606940B34C
:104090002DE02560A068012829D1002606EB8600C6
:1040A00007EB800000F024FA761C072EF6D3234895
:1040B0008C3000F01DFA2148A03000F019FA1F489A
:1040C000B43000F015FA1D48C83000F011FA1B4852
:1040D000DC3000F00DFA19488C3060631430A063B6
:1040E00005E02068E96AC06A884200D82560606AF5
:1040F000401C6062E96A0120226988401043206107
:1041000001EB810007EB8000291D00F017FA00F099
:1041100041FA606900280CD02068E96AC06A8842C8
:1041200007D207494FF080500860BFF34F8FBFF3AD
:104130006F8FBDE8F081000030000020D407002020
:1041400004ED00E010B5044690F8510058B1012884
:104150000CD002280FD0502080F31188BFF34F8F6E
:10416000BFF36F8FFEE7206B00F028FA2046BDE812
:10417000104000F023BA10BD10484FF470514207B0
:1041800006D0C01D0D4920F00700411AC1F570513D
:104190000B4A00230144C2E900030839183A21F010
:1041A000070111604B600B600B1AC0E900139360AC
:1041B0004FF000405360506170470000C408002079
:1041C00084000020144E154CA6F1C8074FF080580B
:1041D000DFF84C9012E000BF00F0BCF9F068C56851
:1041E000281D00F067F9A068401EA0606068401EAE
:1041F000606000F0CFF92846FFF7A4FF6068002850
:10420000EAD138680128F9D9C9F80080BFF34F8F87
:10421000BFF36F8FF2E700009C0800203000002001
:1042200004ED00E02DE9F0479A46DDE90984814676
:104230006FF00303206B03EB82021044089E20F012
:104240000707780707D0502080F31188BFF34F8FFE
:10425000BFF36F8FFEE7002561B1002023180A5CD1
:1042600083F834200A5C12B1401C1028F6D384F87D
:10427000435001E084F83450072E00D30626E6624E
:10428000C4E91165201D00F03EF904F1180000F0AA
:104290003AF92461C6F107006462A061E56484F81C
:1042A000505052464946384600F0C0F82060B8F1F8
:1042B000000F01D0C8F80040BDE8F08730B51149C3
:1042C00000E011460A688242FBD34B685C188442C6
:1042D00003D1406818444860084643681C1894425B
:1042E00009D1084C183C2468A24209D052681A44EB
:1042F00042600A6812680260814200D0086030BDE6
:104300000460F9E7840000200648416B096829B180
:10431000416BC968C9684968816270474FF0FF31D5
:10432000FAE700003000002008484068401C4FF0C9
:10433000500080F3118804D0BFF34F8FBFF36F8F0D
:10434000FEE7BFF34F8FBFF36F8FFEE78C000020B7
:104350002DE9F0410546002700F0D0F9324E3068D3
:1043600008B9FFF709FF706905424ED1C5B308359A
:1043700068070ED005F00700C0F108000544680783
:1043800007D0502080F31188BFF34F8FBFF36F8F9A
:10439000FEE72DB37068854237D8234818300146B0
:1043A0000C6801E020460C466168A94202D22168EF
:1043B0000029F7D131688C4227D007682168016055
:1043C00060680837411B10290FD96019420708D0CF
:1043D000502080F31188BFF34F8FBFF36F8FFEE73C
:1043E00013E041606560FFF769FF61687068401A1B
:1043F0007060B268904200D2B060706901430020E2
:10440000C4E90001F068401CF06000F0E5FA7807AC
:1044100007D0502080F31188BFF34F8FBFF36F8F09
:10442000FEE73846BDE8F0816C00002010B5031FA0
:104430004FF080741C601B1F21F001011960191FCF
:10444000044B0B6014390A60091F6FF002024438F4
:104450000A6010BD2943000810EE100A0649884280
:1044600001DD0120704710EE100A0449884201D98D
:10447000C817704700207047BD378635BD3786B5F1
:104480000B484188491C8AB200214280B2F5487F1E
:1044900003D1C288521CC28041800278012A01D116
:1044A0004180C180C28883889A4200D9C180704708
:1044B00018000020D0E9013201699A60D0E9012397
:1044C0005A604A68824201D182684A6000220261D1
:1044D0000868401E0860086870470000034B0360CE
:1044E00003F154000860802010607047E80000204D
:1044F00000F108014FF0FF32C0E90112C160016113
:1045000000210160704700210161704730B50B68E0
:104510005A1C02D000F1080202E0026904E02246BF
:10452000546825689D42FAD953684B6099608A6047
:10453000516008610168491C016030BD42684A60F1
:1045400093688B6093685960916008610168491CA9
:1045500001607047502080F31188BFF34F8FBFF385
:104560006F8F0A494868401C486001280CD10848F0
:10457000006810F0FF0F07D0502080F31188BFF3C0
:104580004F8FBFF36F8FFEE7704700008C00002055
:1045900004ED00E00849486828B1401E486001D198
:1045A00080F311887047502080F31188BFF34F8F3C
:1045B000BFF36F8FFEE700008C00002070B500286D
:1045C0002AD0164DA0F1080460686969084207D135
:1045D000502080F31188BFF34F8FBFF36F8FFEE73A
:1045E00022683AB1502080F31188BFF34F8FBFF398
:1045F0006F8FFEE78843606000F080F8606869684C
:10460000084468602046FFF759FE2869401C28616D
:10461000BDE8704000F0E0B970BD00006C00002003
:104620004FF0E02000210161816105494FF47A7269
:104630000968B1FBF2F1491E416107210161704730
:104640002C00002010B5020014D00F48006B38B1C8
:10465000502080F31188BFF34F8FBFF36F8FFEE7B9
:1046600000F04CF800211046FFF7CCFC00F0B4F944
:10467000002807D105494FF080500860BFF34F8FE5
:10468000BFF36F8F10BD00003000002004ED00E08C
:1046900010B586B00024039405AA04A903A80494C5
:1046A000FFF71CFFDDE903010094CDE901100023B1
:1046B0000EA11048059A00F0FEF80F490028C862C4
:1046C00011D0502080F31188BFF34F8FBFF36F8F4D
:1046D0004FF0FF30886201204861CC6006B0BDE831
:1046E000104000F041B806B010BD000049444C45F0
:1046F00000000000C5410008300000200248016BA6
:10470000491C016370470000300000201448016B11
:1047100011B10121C16170470021C1610169B1FA84
:1047200081F1C1F11F0101EB81020E4951F82230E4
:104730006BB101EB820101F108034A6852684A60DB
:104740009A4201D152684A60D16801607047502096
:1047500080F31188BFF34F8FBFF36F8FFEE7000028
:1047600030000020D40700201CB537480168374AC4
:10477000914207D1502080F31188BFF34F8FBFF3D0
:104780006F8FFEE700683149491E884207D15020EB
:1047900080F31188BFF34F8FBFF36F8FFEE72C4973
:1047A00008780190FF20087008788DF800009DF8C7
:1047B00000009DF8002000F0F000904207D050204B
:1047C00080F31188BFF34F8FBFF36F8FFEE79DF823
:1047D0000000204C00F0500020700720A06005E091
:1047E0009DF8002052008DF80020401E9DF800200A
:1047F0001206F5D4A060032807D0502080F311885A
:10480000BFF34F8FBFF36F8FFEE74FF44070A06090
:10481000019808700C482030016841F47001016073
:10482000016841F070410160FFF7FAFE002060600E
:10483000FBF71EFD0848016841F040410160FBF7AD
:1048400003FD00201CBD000000ED00E071C20F411F
:1048500000E400E08C00002034EF00E02DE9FF5F71
:104860008346DDE90E87994616468A469000FFF793
:104870006FFD05001CD05420FFF76AFD040014D022
:104880000020256384F85100CDE90240CDE900877E
:104890004B46324651465846FFF7C4FC2046FFF7C8
:1048A000E9FB012004B0BDE8F09F2846FFF786FE33
:1048B0004FF0FF30F6E7F0B585B0DDE90B640A9DF7
:1048C000A6B1DCB1542700972663022684F8516014
:1048D000002604AFCDE90246CDE90057FFF7A2FC60
:1048E0002046FFF7C7FB049805B0F0BD502080F3C9
:1048F0001188BFF34F8FBFF36F8FFEE7502080F317
:104900001188BFF34F8FBFF36F8FFEE72DE9F041A2
:104910002F4C0026206B28B1A069401CA0613046B6
:10492000BDE8F081E5686D1CE56013D1606B00683F
:1049300038B1502080F31188BFF34F8FBFF36F8FD2
:10494000FEE7606BA16B6163A063206A401C20627C
:10495000FFF7DAFCA06ADFF87C80854209D3606B40
:104960000068A0B1606BC068C7687868854211D2E2
:10497000A0622068C06A00EB800158F8210001287D
:1049800000D90126E0690028C9D00126C7E74FF009
:10499000FF30EDE7381DFFF78DFDB86A18B107F15C
:1049A0001800FFF787FDF96A01202269884010434B
:1049B000206101EB810108EB8100391DFFF7BEFD8D
:1049C000F86A2168C96A8842C9D30126C7E700008E
:1049D00030000020D40700202DE9F0472C4D0024A2
:1049E0002746286B38B1FFF7B5FD286B401E2863BA
:1049F000286B40B146E0502080F31188BFF34F8F01
:104A0000BFF36F8FFEE7A968224E0120D1B3A6F154
:104A1000B40980463068E8B1F068C46804F1180051
:104A2000FFF748FD201DFFF745FDE06A2A6908FAF7
:104A300000F11143296100EB800109EB8100211D88
:104A4000FFF77CFDE06A2968C96A8842E2D3C5F8AD
:104A50001C80DFE70CB1FFF757FCAC6944B1464658
:104A6000FFF754FF00B1EE61641EF9D10020A86188
:104A7000E86938B10849012738070860BFF34F8F4C
:104A8000BFF36F8FFFF786FD3846BDE8F087000063
:104A9000300000208808002004ED00E04FF0407056
:104AA000E1EE100A70470000404B0008CD330008CB
:104AB00003000000000000000001000000000000F2
:104AC000000000004C4B0008B93300080300000050
:104AD00000000000000100000000000000000000D5
:104AE000344B0008D9330008FFFF0000000000002D
:104AF000800000000000000000000000000610160A
:104B0000000610160000000000000000010203046F
:104B1000060708090000000001020304FF0000FF6F
:104B2000A500FFFF0000FF0000FFFF0000FFFF00E7
:104B3000FF0000006D6573736167655461736B00FE
:104B40006C616D705461736B000000006368617389
:104B50007369735461736B00784B00080000002088
:104B6000BC000000C4010008344C0008BC00002058
:104B70009C630000E001000800000000000000004D
:104B80000000000000000000000000000000000025
:104B90000000000000000000010000001000000004
:104BA000000000000024F4000000000000000000ED
:104BB00000000000000000000000000000000000F5
:104BC00000000000000000000000000000000000E5
:104BD00000000000000000000000000000000000D5
:104BE00000000000000000000000000000000000C5
:104BF00000000000000000000000000000000000B5
:104C00000000000000000000AAAAAAAA00000000FC
:104C10000000000000000000000000000000000094
:104C20000000E040000000000000000000007A44A6
:044C30000000C84276
:040000050800018965
:00000001FF
